:100000000C9473000C949F000C949F000C949F0020
:100010000C949F000C949F000C949F000C949F00E4
:100020000C949F000C949F000C949F000C949F00D4
:100030000C949F000C949F000C949F000C949F00C4
:100040000C949F000C949F000C949F000C949F00B4
:100050000C949F000C949F000C949F000C947C05C2
:100060000C949F000C94D2000C94FE010C949F0001
:100070000C949F000C949F000C949F000C949F0084
:100080000C949F000C949F000C949F000C949F0074
:100090000C940B010C943D020C949F000C949F0057
:1000A0000C949F000C949F000C949F000C949F0054
:1000B0000C949F000C949F000C949F000C949F0044
:1000C0000C949F000C949F000C949F000C9444018E
:1000D0000C947C020C949F000C947D010C94BB0248
:1000E0000C949F00250411241FBECFEFD1E2DEBF88
:1000F000CDBF00E00CBF12E0A0E0B2E0E6EAFCE019
:1001000000E00BBF02C007900D92A031B107D9F7F4
:1001100014E0A0E1B2E001C01D92A53BB107E1F7F8
:1001200010E0C6EED0E004C02297FE010E944D060A
:10013000C43ED107C9F70E946D050C9426060C94A5
:1001400000008FE494E00E948003892B49F08FE443
:1001500094E00E94B103682F80E394E00E94EC03D6
:1001600080E394E00E948003892B49F080E394E0CF
:100170000E94B103682F8FE494E00E94EC0308957D
:1001800080E394E040E855E260E070E00E94FA020B
:100190008FE494E040E855E260E070E00E94FA02EB
:1001A000089508951F920F920FB60F920BB60F92FB
:1001B00011242F933F934F938F939F93EF93FF932C
:1001C0004091C60020915002309151022F5F3F4F65
:1001D0002F73307080915202909153022817390783
:1001E00059F0E0915002F0915102E05FFD4F4083E1
:1001F0003093510220935002FF91EF919F918F9184
:100200004F913F912F910F900BBE0F900FBE0F900B
:100210001F90189508951F920F920FB60F920BB66C
:100220000F9211242F933F934F938F939F93EF93AC
:10023000FF934091CE002091D8023091D9022F5FD8
:100240003F4F2F7330708091DA029091DB022817B4
:10025000390759F0E091D802F091D902E856FD4FE4
:1002600040833093D9022093D802FF91EF919F9160
:100270008F914F913F912F910F900BBE0F900FBE1A
:100280000F901F90189508951F920F920FB60F921E
:100290000BB60F9211242F933F934F938F939F93FD
:1002A000EF93FF934091D60020916003309161035A
:1002B0002F5F3F4F2F7330708091620390916303E3
:1002C0002817390759F0E0916003F0916103E05E6F
:1002D000FC4F40833093610320936003FF91EF91C3
:1002E0009F918F914F913F912F910F900BBE0F9047
:1002F0000FBE0F901F90189508951F920F920FB682
:100300000F920BB60F9211242F933F934F938F931D
:100310009F93EF93FF93409136012091E803309132
:10032000E9032F5F3F4F2F7330708091EA03909164
:10033000EB032817390759F0E091E803F091E9033E
:10034000E855FC4F40833093E9032093E803FF9185
:10035000EF919F918F914F913F912F910F900BBEF5
:100360000F900FBE0F901F901895E0913C04F091F4
:100370003D04E05CFF4F8191919120813181821B8E
:10038000930B8F739070892B11F00E94D100E09134
:100390005B04F0915C04E05CFF4F819191912081BE
:1003A0003181821B930B8F739070892B11F00E9407
:1003B0000A01E0917A04F0917B04E05CFF4F8191A7
:1003C000919120813181821B930B8F739070892BC7
:1003D00011F00E944301E0919904F0919A04E05CCD
:1003E000FF4F8191919120813181821B930B8F73FB
:1003F0009070892B11F00E947C0108951F920F923A
:100400000FB60F920BB60F9211242F933F938F9339
:100410009F93EF93FF9320919402309195028091E6
:100420009602909197022817390731F48091C10004
:100430008F7D8093C10014C0E0919602F0919702E5
:10044000EC5AFD4F2081809196029091970201967F
:100450008F73907090939702809396022093C600BA
:10046000FF91EF919F918F913F912F910F900BBE34
:100470000F900FBE0F901F9018951F920F920FB6FE
:100480000F920BB60F9211242F933F938F939F934C
:10049000EF93FF9320911C0330911D0380911E0365
:1004A00090911F032817390731F48091C9008F7D7F
:1004B0008093C90014C0E0911E03F0911F03E45221
:1004C000FD4F208180911E0390911F0301968F7331
:1004D000907090931F0380931E032093CE00FF9192
:1004E000EF919F918F913F912F910F900BBE0F90A5
:1004F0000FBE0F901F9018951F920F920FB60F927C
:100500000BB60F9211242F933F938F939F93EF93EA
:10051000FF932091A4033091A5038091A6039091AD
:10052000A7032817390731F48091D1008F7D80937C
:10053000D10014C0E091A603F091A703EC59FC4F41
:1005400020818091A6039091A70301968F739070EC
:100550009093A7038093A6032093D600FF91EF9179
:100560009F918F913F912F910F900BBE0F900FBED7
:100570000F901F9018951F920F920FB60F920BB607
:100580000F9211242F933F938F939F93EF93FF9399
:1005900020912C0430912D0480912E0490912F04F1
:1005A0002817390731F4809131018F7D8093310113
:1005B00014C0E0912E04F0912F04E451FC4F2081EF
:1005C00080912E0490912F0401968F7390709093D8
:1005D0002F0480932E0420933601FF91EF919F9179
:1005E0008F913F912F910F900BBE0F900FBE0F90E8
:1005F0001F901895AF92BF92DF92EF92FF920F93E8
:100600001F93CF93DF93EC017A018B01DD244030FF
:1006100081EE580780E0680780E0780711F0DD245C
:10062000D39491E0A92EB12CEC89FD89DD2069F0ED
:10063000C5010E8C02C0880F991F0A94E2F78083CF
:1006400060E079E08DE390E005C0108260E874E836
:100650008EE190E0A80197010E94290621503040C8
:1006600040405040569547953795279580E120307A
:10067000380720F0DD2011F0DD24D6CFE889F98994
:100680003083EA89FB892083EE89FF89408121E05C
:1006900030E0C9010A8C02C0880F991F0A94E2F762
:1006A000482B4083EE89FF894081C9010B8C02C031
:1006B000880F991F0A94E2F7482B4083EE89FF893F
:1006C0004081C9010C8C02C0880F991F0A94E2F77F
:1006D000482B4083EE89FF8980810D8C02C0220F58
:1006E000331F0A94E2F7209528232083DF91CF91CE
:1006F0001F910F91FF90EF90DF90BF90AF90089502
:10070000DC011C96ED91FC911D97E05CFF4F21915F
:10071000319180819181281B390B2F733070C90171
:100720000895DC011C96ED91FC911D97E05CFF4F54
:1007300020813181E054F040DF01AE5BBF4F8D91ED
:100740009C9111972817390719F42FEF3FEF07C035
:100750008D919C91E80FF91F8081282F30E0C9010D
:100760000895DC011C96ED91FC911D97E05CFF4F14
:1007700020813181E054F040DF01AE5BBF4F8D91AD
:100780009C9111972817390719F42FEF3FEF10C0EC
:100790008D919C911197E80FF91F20818D919C916B
:1007A000119701968F73907011969C938E9330E001
:1007B000C9010895FC0186859785DC01A05CBF4FC7
:1007C000FC01EE5BFF4F2D913C911197808191814F
:1007D00028173907C1F70895CF93DF93EC01EE8511
:1007E000FF85E05CFF4F20813181E054F0402F5FB6
:1007F0003F4F2F733070DF01AE5BBF4F8D919C91E7
:10080000119728173907D1F3E05CFF4F8081918160
:10081000E054F040E80FF91F6083EE85FF85E05C4F
:10082000FF4F31832083EE89FF89208181E090E0B2
:100830000D8C02C0880F991F0A94E2F7282B2083A1
:1008400081E090E0DF91CF9108951F9310923304DF
:100850001092320428EE33E040E050E0209334045C
:1008600030933504409336045093370464E072E0CB
:10087000709331046093300480E192E090933D04E2
:1008800080933C0484E592E090933F0480933E047F
:1008900085EC90E0909341048093400484EC90E0D8
:1008A000909343048093420480EC90E0909345043D
:1008B0008093440481EC90E0909347048093460435
:1008C00086EC90E0909349048093480414E01093E0
:1008D0004A04B3E0B0934B04A7E0A0934C04F5E0C6
:1008E000F0934D04E1E0E0934E0410925204109214
:1008F000510420935304309354044093550450936F
:1009000056047093500460934F0488E992E09093EA
:100910005C0480935B048CED92E090935E04809382
:100920005D048DEC90E09093600480935F048CEC08
:1009300090E0909362048093610488EC90E090933F
:1009400064048093630489EC90E090936604809340
:1009500065048EEC90E09093680480936704109394
:100960006904B0936A04A0936B04F0936C04E09361
:100970006D041092710410927004209372043093ED
:100980007304409374045093750470936F046093E0
:100990006E0480E293E090937B0480937A0484E673
:1009A00093E090937D0480937C0485ED90E0909398
:1009B0007F0480937E0484ED90E090938104809383
:1009C000800480ED90E0909383048093820481ED15
:1009D00090E0909385048093840486ED90E090935A
:1009E00087048093860410938804B0938904A093AD
:1009F0008A04F0938B04E0938C041092900410927C
:100A00008F04209391043093920440939304509365
:100A1000940470938E0460938D0488EA93E090931D
:100A20009A04809399048CEE93E090939C048093B5
:100A30009B0485E391E090939E0480939D0484E35E
:100A400091E09093A00480939F0480E391E09093C1
:100A5000A2048093A10481E391E09093A404809385
:100A6000A30486E391E09093A6048093A5041093D9
:100A7000A704B093A804A093A904F093AA04E09358
:100A8000AB041F910895CF92DF92EF92FF920F93E4
:100A90001F93CF93DF937C016B018A01C0E0D0E00C
:100AA0000FC0D6016D916D01D701ED91FC910190C0
:100AB000F081E02DC7011995C80FD91F01501040D2
:100AC0000115110571F7CE01DF91CF911F910F91A3
:100AD000FF90EF90DF90CF900895CF93DF930E9427
:100AE000C4050E94C000C5EBD1E00E94A100209780
:100AF000E1F30E94B501F9CF1F920F920FB60F924A
:100B000011242F933F938F939F93AF93BF93809123
:100B1000B0049091B104A091B204B091B3043091AB
:100B2000B4040196A11DB11D232F2D5F2D3720F098
:100B30002D570196A11DB11D2093B4048093B004DC
:100B40009093B104A093B204B093B3048091AC0429
:100B50009091AD04A091AE04B091AF040196A11D97
:100B6000B11D8093AC049093AD04A093AE04B093F8
:100B7000AF04BF91AF919F918F913F912F910F90B3
:100B80000FBE0F901F901895789484B5826084BD35
:100B900084B5816084BD85B5826085BD85B5816081
:100BA00085BDEEE6F0E0808181608083E1E8F0E0E1
:100BB0001082808182608083808181608083E0E810
:100BC000F0E0808181608083E1EBF0E080818460EF
:100BD0008083E0EBF0E0808181608083E1E9F0E0F8
:100BE000808182608083808181608083E0E9F0E0A1
:100BF000808181608083E1EAF0E08081826080838F
:100C0000808181608083E0EAF0E080818160808380
:100C1000E1E2F1E080818260808380818160808375
:100C2000E0E2F1E0808181608083EAE7F0E08081AA
:100C30008460808380818260808380818160808302
:100C40008081806880831092C1000895F8940C948C
:100C50005106A1E21A2EAA1BBB1BFD010DC0AA1F43
:100C6000BB1FEE1FFF1FA217B307E407F50720F015
:100C7000A21BB30BE40BF50B661F771F881F991F90
:100C80001A9469F760957095809590959B01AC01D9
:100C9000BD01CF010895EE0FFF1F0590F491E02DE7
:060CA0001994F894FFCF47
:100CA60000000000EC0343058003B1039103DA035F
:00000001FF
